:020000040000fa
:080000000001040000000000f3
:020000040000fa
:04000800c80100002b
:020000040000fa
:04000c00c801000027
:020000040000fa
:04001000c801000023
:020000040000fa
:04001400c80100001f
:020000040000fa
:04001800c80100001b
:020000040000fa
:04001c00c801000017
:020000040000fa
:04002000c801000013
:020000040000fa
:04002400c80100000f
:020000040000fa
:04002800d4080000f8
:020000040000fa
:04002c00c801000007
:020000040000fa
:04003000c801000003
:020000040000fa
:04003400cc100000ec
:020000040000fa
:04003800c8010000fb
:020000040000fa
:04003c00c8010000f7
:020000040000fa
:04004000aa130000ff
:020000040000fa
:04004400c8010000ef
:020000040000fa
:04004800c8010000eb
:020000040000fa
:04004c00180900008f
:020000040000fa
:04005000c8010000e3
:020000040000fa
:04005400c8010000df
:020000040000fa
:04005800c8010000db
:020000040000fa
:04005c00c8010000d7
:020000040000fa
:04006000c8010000d3
:020000040000fa
:04006400c8010000cf
:020000040000fa
:04006800c8010000cb
:020000040000fa
:04006c00c8010000c7
:020000040000fa
:04007000c8010000c3
:020000040000fa
:04007400c8010000bf
:020000040000fa
:04007800c8010000bb
:020000040000fa
:04007c00c8010000b7
:020000040000fa
:04008000c8010000b3
:020000040000fa
:04008400ea08000086
:020000040000fa
:04008800c8010000ab
:020000040000fa
:04008c00c8010000a7
:020000040000fa
:04009000c8010000a3
:020000040000fa
:04009400c80100009f
:020000040000fa
:04009800c80100009b
:020000040000fa
:04009c00c801000097
:020000040000fa
:0400a000c801000093
:020000040000fa
:0400a400c80100008f
:020000040000fa
:0400a800c80100008b
:020000040000fa
:0400ac00c801000087
:020000040000fa
:0400b000c801000083
:020000040000fa
:0400b400c80100007f
:020000040000fa
:0400b800c80100007b
:020000040000fa
:0400bc00c801000077
:020000040000fa
:0400c000c801000073
:020000040000fa
:0400c400c80100006f
:020000040000fa
:0400c800c80100006b
:020000040000fa
:0400cc00c801000067
:020000040000fa
:0400d000c801000063
:020000040000fa
:0400d400c80100005f
:020000040000fa
:0400d800c80100005b
:020000040000fa
:04010800c80100002a
:020000040000fa
:04010c00c801000026
:020000040000fa
:04011000c801000022
:020000040000fa
:04011400c80100001e
:020000040000fa
:04011800c80100001a
:020000040000fa
:04011c00c801000016
:020000040000fa
:04012000c801000012
:020000040000fa
:04012400c80100000e
:020000040000fa
:04012800c80100000a
:020000040000fa
:04012c00c801000006
:020000040000fa
:04013000c801000002
:020000040000fa
:04013400c8010000fe
:020000040000fa
:04013800c8010000fa
:020000040000fa
:04013c00c8010000f6
:020000040000fa
:04014000c8010000f2
:020000040000fa
:04014400c8010000ee
:020000040000fa
:04014800c8010000ea
:020000040000fa
:04014c00c8010000e6
:020000040000fa
:04015000c8010000e2
:020000040000fa
:04015400c8010000de
:020000040000fa
:04015800c8010000da
:020000040000fa
:04015c00c8010000d6
:020000040000fa
:04016000c8010000d2
:020000040000fa
:04016400c8010000ce
:020000040000fa
:04016800c8010000ca
:020000040000fa
:04016c00c8010000c6
:020000040000fa
:04017000c8010000c2
:020000040000fa
:04017400c8010000be
:020000040000fa
:04017800c8010000ba
:020000040000fa
:04017c00c8010000b6
:020000040000fa
:04018000c8010000b2
:020000040000fa
:04018400c8010000ae
:020000040000fa
:04018800c8010000aa
:020000040000fa
:04018c00c8010000a6
:020000040000fa
:04019000c8010000a2
:020000040000fa
:04019400c80100009e
:020000040000fa
:04019800c80100009a
:020000040000fa
:04019c00c801000096
:020000040000fa
:0401a000c801000092
:020000040000fa
:0401a400c80100008e
:020000040000fa
:0401a800c80100008a
:020000040000fa
:0401ac00c801000086
:020000040000fa
:0401b000c801000082
:020000040000fa
:0401b400c80100007e
:020000040000fa
:0401b800c80100007a
:020000040000fa
:0401bc00c801000076
:020000040000fa
:0401c000c801000072
:020000040000fa
:0401c400c80100006e
:020000040000fa
:0401c800c80100006a
:020000040000fa
:0401cc00c801000066
:020000040000fa
:0401d000c801000062
:020000040000fa
:0401d400c80100005e
:020000040000fa
:0401d800c80100005a
:020000040000fa
:10020000cf9620000ebf20000e01880000000000e5
:10021000000020000000e000020032000001200089
:1002200020028800140007005b0007000000e000c7
:1002300003003a0020552100010020000200370091
:100240000000200001002000810f7000010032003a
:1002500014000700000020000000e000020032004f
:10026000000002000000000018050200000000006d
:100270000040da000000fe004440a9000000200019
:100280000000e0000300320000002000a001880010
:100290004440a800000006008a1f78008b1f7800e9
:1002a0000000060091018800800478000000eb0047
:1002b0001a003700e284440032a0b4009905ba0065
:1002c000e284440032a0b4009906ba00e2844400fb
:1002d00032a0b4000006eb00476fde00fd07b2005d
:1002e000636ce10003003a00ebff07000000eb0045
:1002f0000a003700606ce10004003a00005deb008a
:100300008b05e900fdff3e00040037006168e10055
:10031000010032000086eb000b00070019c7ba008d
:100320001905ba000e04e00003003a000a00e000dc
:10033000e0ff3a0000000600fe07b2009e018800c0
:100340008a047800f5ff3700395dba008b05e900b3
:100350000c003200295dba008b05e900080032006c
:100360000c00e00003003a00e284440032a0b40034
:10037000f5ff370019ddba008b05e900faff3a00f6
:100380008904e800e184440032a0b40000000600c3
:100390000040da000000fe000000050003f0a200ab
:1003a000889fbe008a9fbe008c1f78001501070041
:1003b0001c0133006450e1004f0032006420e10072
:1003c0005200320003826c0007003b000905d00098
:1003d0000306d000820f54000c065d0002003900b5
:1003e00002003200890178000306780085825500fa
:1003f00004003d000003fd008103fd008502ea00ca
:100400008b854200840f720002003b0060001000e8
:10041000e08018006011b8000005eb007a28e100c8
:100420000a00390006007800c75ddd00f707b2005a
:10043000878075002d003700828171000a017800e5
:10044000610560008180d1000080d3008502e90051
:10045000f9ff3b00060440008784480002003b008f
:1004600060041400e0841c000988a3000700320027
:100470008a81710082817100610164008904d10068
:100480000884d3008b05e800170037000978a30023
:1004900013003a000b00e000130034008b05e90064
:1004a0000804440089844c000a4474000978a300bd
:1004b0000d003a000b00e000070034008b05e90056
:1004c0000804440089844c0001003a000b0020001d
:1004d0000978a300f7ff32000001eb0002003700ab
:1004e000828171000a0178008b0007000cf0a700e0
:1004f00001f0a000d40037006420e10002003a00bf
:10050000838f6c00d40033000801be000200be00df
:10051000cd003700889fbe008a9fbe008c1f7800e8
:10052000b8000700bf00330003866c006450e10090
:100530002e0032006420e100330032006150e100ff
:100540002f0032006120e100310032008585550026
:10055000eb07b00009002000080420000500370068
:100560000804440089844c000a003100060343005b
:1005700087834b000001530081815b00f8ff33004b
:100580000203be000800a0000804440089844c0057
:10059000f6ff3900c639dd00830173000100320027
:1005a000130020008904d1000884d3000998a30017
:1005b000050032000800a7000300a0008904d10054
:1005c0000884d3008b05e8008904d1000884d30097
:1005d0000001eb000281d2004f00070001f0a100f2
:1005e0000cf0a70001f0a000970037006420e100a4
:1005f000990032000801be000200be00f7ff37007c
:100600006120e100940032006000b800f3ff370081
:100610000000200001f82700f0ff37000001be00b5
:10062000630007000470a70003f0a1006509b10092
:10063000160032000d0035006828e1000600350084
:10064000f0ff2f00f1ff27000300e00013003b0044
:1006500001002800000005000000400081804800e3
:100660008502e900fcff3a0008003700f88f4200dd
:1006700002003c008000eb00000005008100d1007a
:100680000080d3008502e800fcff3a000300e00090
:1006900002003b0060001000e0801800000006002f
:1006a0000001be00420007000470a70003f0a10093
:1006b00003f8a30013003a006509b10010003200ee
:1006c000090035006928e10002003500010028001a
:1006d0000000050000004000818048008502e9001c
:1006e000fcff3a0000000600f88f420005003500cc
:1006f0008100d1000080d3008502e800fcff3a00b1
:10070000000006008000eb00000005004f89de00bd
:100710008201780087003700810020006180550049
:100720000b003d000b00200061fe2f000100e100e6
:100730001d00340082817100610164008904d100d0
:100740000884d3000000e800faff3a00710020009e
:1007500061006400030070000200600009003200c4
:1007600061044400e0844c000988a50005003200c3
:100770008b05e8006808e10002003a008904d10016
:100780000884d300f20f20000258e10005003d006c
:10079000c75ddd00f907b2008980750008007800a8
:1007a000000006000bf827008b0078000000050011
:1007b000c70ade00f107b200f50fb20008003200f0
:1007c000e1cf4200020032000170a00024000500c9
:1007d000810f70000100320004080500440005008c
:1007e000810f700002003a00140005008502e90044
:1007f0000000400081c04800fcff3b000170a000e9
:10080000240005000004be00e9ff07000003be004d
:100810000405be000200be00e5ff0700844f75001e
:10082000000006000200be006450e1000500360032
:100830006420e100020036000968a30001003a00cc
:100840000800be000160a0004f0678004f05be0002
:100850004f04be0000000600f0ff2f00f1ff27004c
:10086000f9ff3700889fbe008a9fbe008c1f78006a
:10087000e4ff0700ebff330003866c006450e100e7
:10088000240032006420e100270032006150e100c2
:10089000220032006120e100210032008b854200fd
:1008a000eb07b1000134b800003ab8000804420078
:1008b00089844a00013ab8000030b80088804000be
:1008c00009014a0004003300000040008180480014
:1008d000020149008b05e900c909dd0083017000b0
:1008e0000100320013002000c814de004814dd00af
:1008f0004709de001200b200c808de00088470005c
:1009000085ff070001f0a1000cf0a70001f0a00096
:10091000cdff37006120e100cfff32000801be00ab
:100920000200be00f7ff37006150e100fcff3a0013
:10093000c9ff3700881f7800030478000300e00037
:1009400007003d0060001000e08018006001190001
:10095000e081190002003b0001f02d000300370088
:100960000400070008f0a70001f0a0004f04780081
:1009700000000600889fbe008a9fbe0000827000b3
:100980000402710004827100260032000004be00df
:100990000200be006011b8006b0920009502200023
:1009a0000182cf000a0039000541b1000082cf006a
:1009b000070039000541b1000982cf000400390069
:1009c0000541b1000882cf00010039000541b100a6
:1009d00005425200120032000a003b008281710081
:1009e000610164008100d1000080d3008984d300bc
:1009f0000884d3008b05e8000442e800f7ff3a00c2
:100a0000070037000804440089844c0000004800b7
:100a1000818048008b05e9000442e900f9ff3a00b3
:100a20003dff07004f05be004f04be00000006005a
:020000040000fa
:100a30000000fa00c622ef00ca22ef00e0ff2f00fc
:100a4000c0168800de22ef00e222ef000080eb00fb
:100a500090168800cc22ef00d022ef00600020002a
:100a6000000e880030062000200e8800f00f2000c5
:100a7000400e8800d621ef00d821ef00da21ef00e8
:100a80000e22ef0002002000031f240000002000bf
:100a90006161240090070700a01088000d42a800a3
:100aa000f0ff2000100888000021ef000421ef0073
:100ab000204e2e00600888000621ef001021ef0074
:100ac0008108800000032000010070008008880079
:100ad0000080eb0040158800c1048000f0ff280072
:100ae0000080600000c0a000c0048800a104800055
:100af000f0ff2800808060000000230001007000eb
:100b0000a0048800b1048000f08f2f0000806000f6
:100b100000a0a000b0048800c1048000f0f82f00fd
:100b2000808060000005200001007000c004880083
:100b3000a104800080ff2f00008060006000b300ef
:100b4000a0048800f104800000002700010070006c
:100b5000f00488008420ef008620ef008820ef005a
:100b60008460a90084c0a9008400a90086e0a900cf
:100b70008560a9008520a900ff3ffc008c20ef00c4
:100b80008e20ef009020ef008c60a8008d20a80040
:100b90008c00a8008ee0a8008cc0a8008200a900ec
:100ba0008240a9005220ef00c1e1a80011e1a80095
:100bb00005e1a8000de2a8000f42a800e04a80006d
:100bc000f04a8800c04a8000e10f500042003a001d
:100bd000204080000000e0003f003c00104080000a
:100be0000000e0003c003c006029ef00080707001f
:100bf0005829ef002a28ef006041800070418800ea
:100c0000204b8000e10f500011003a00804180002d
:100c1000b00e8800010037000140fe005041800006
:100c20000000e00003003a0010418000e10f500096
:100c3000f9ff32003a000700010037000140fe00d2
:100c400000418000e10f5000fcff3200100037002f
:100c500033000700010037000140fe000041800022
:100c6000e10f5000fcff320080418000b00e880090
:100c7000010037000140fe00504180000000e0000c
:100c800003003a0010418000e10f5000f9ff3200ec
:100c900010002000004b8800010037000140fe00da
:100ca00020408000e10f5000fcff32001040800027
:100cb000e10f5000f9ff3200204080000000e0000a
:100cc00005003c00104080000000e00002003c00f5
:100cd00030062000801088000ec8bf00e14f500091
:100ce0000d00360030408000e10f50000a003a004d
:100cf00020408000e10f500007003a000628ef0076
:100d000007000700010037000140fe00004180009d
:100d1000e10f5000fcff32000140fe00a9ff370048
:100d20001800fa00b0418000e10f500003003a00c3
:100d3000004380000000ea0000438800404b800030
:100d4000e10f500003003a00104380000000ea0069
:100d500010438800c0418000e10f500003003a00ba
:100d6000204380000000ea0020438800d04180003a
:100d7000e10f500003003a00304380000000ea0019
:100d8000304388003c28ef00004380000000e00072
:100d900003003500e04180000000a000e041880031
:100da000104380000000e00003003500e0418000b7
:100db0000010a000e0418800204380000000e00017
:100dc00003003500e04180000020a000e0418800e1
:100dd000304380000000e00003003500e041800067
:100de0000030a000e0418800e04180000080a000c9
:100df000e0418800004380000000e00003003d0067
:100e0000004380000000ea00004388001043800097
:100e10000000e00003003d00104380000000ea00f5
:100e200010438800204380000000e00003003d00e4
:100e3000204380000000ea00204388003043800007
:100e40000000e00003003d00304380000000ea00a5
:100e5000304388000143800010438000808f5000a1
:100e6000200034000143800020438000808f500028
:100e70000e0034000143800030438000808f50001a
:100e80000500340000438000cf80de00c0438800ae
:100e9000d14388003200370030438000cf80de002d
:100ea000c0438800d14388002d00370021438000d3
:100eb00030438000808f50000500340020438000c4
:100ec000cf80de00c0438800d14388002400370073
:100ed00030438000cf80de00c0438800d1438800cb
:100ee0001f0037001143800020438000808f500096
:100ef0000e0034001143800030438000808f50008a
:100f00000500340010438000cf80de00c04388001d
:100f1000d14388001200370030438000cf80de00cc
:100f2000c0438800d14388000d0037002143800072
:100f300030438000808f5000050034002043800043
:100f4000cf80de00c0438800d14388000400370012
:100f500030438000cf80de00c0438800d14388004a
:100f6000c0438000d1438000e8fd0700008fbe0031
:100f700000438000cf80de00e4fd070020079800da
:100f80003107980010438000cf80de00dffd0700ae
:100f9000400798005107980020438000cf80de0072
:100fa000dafd070060079800710798003043800061
:100fb000cf80de00d5fd0700000f9800110f9800cc
:100fc000004380000000e000060032002e01900087
:100fd000be0190001e00be004efd0700e0438800e9
:100fe000f1438800104380000000e000060032005a
:100ff0004e019000de0190001e00be0045fd07007e
:101000000044880011448800204380000000e00074
:10101000060032006e019000fe0190001e00be002e
:101020003cfd0700204488003144880030438000a4
:101030000000e000060032000e0990009e099000ba
:101040001e00be0033fd0700404488005144880064
:1010500000002000a1372400200f9800310f9800d5
:10106000e0438000f14380002e099000be0990000b
:10107000fcfd070069fd070080428800914288005e
:1010800000448000114480002e099000be099000a9
:10109000f4fd070061fd0700a0428800b14288000e
:1010a00020448000314480002e099000be09900049
:1010b000ecfd070059fd0700c0428800d1428800be
:1010c00040448000514480002e099000be099000e9
:1010d000e4fd070051fd0700e0428800f14288006e
:1010e000c0438000d1438000a20f20000289b900d4
:1010f000020178006002b900840178000301410018
:10110000a30f20000300b800010141008200780015
:10111000c0438800d1438800304b80000000ea00c3
:10112000e0408800e04080004006b000e0408800d9
:10113000e04080006a00b90000007800e0408800cc
:10114000e1408000803e2000808f5000020034008b
:10115000803e2000e0408800504080000000e00019
:101160000b003200a00f200001002000c0408800ca
:10117000d1408800803e200010088800803e20007a
:10118000b040880000052000a04088000200370021
:10119000e040800010088800100020000041880016
:1011a0000080fa0000000600801f78000000fa00ae
:1011b000104b8000e10f500002003a0010002000a8
:1011c000504188008400a9000080fa004f00780098
:1011d00000400600801f78000000fa007041800087
:1011e0000000e90070418800e04a8000f04a880071
:1011f000104b80000000e00002003a0010002000c8
:1012000050418800704180000000e00004003c0074
:10121000604180000000e00001003400d621ef00b2
:1012200086e0a9000080fa004f0078000040060028
:101230003600f800809fbe00829fbe00849fbe00e3
:10124000869fbe000c00fa0010002000000f7800fe
:101250000000eb00200798000000eb00300798002a
:101260000000eb00400798000000eb0050079800da
:101270002c003700a24a8000901080008040780047
:10128000c08820000000410001487800f040800044
:101290000000e00006003200a14a8000c088200063
:1012a00000804000104078000000fb0080108800a3
:1012b000a14a8000c08820000080400010407800d3
:1012c000ed4f50000b003a00f04080000000e000bd
:1012d00002003200a000200080108800a04a800098
:1012e000a04188005429ef0010002000b04a880077
:1012f0000c003700504b800080007800a04a80002e
:10130000808f5000040031005429ef0010002000ad
:10131000d04a880003003700a04a80000000e8009f
:10132000a04a880070108000610060000000e000aa
:1013300003003200b04a80000000e000cdff320020
:10134000b04a8000e10f50008b033a000000eb0030
:101350001007980010062000801088006a033700ec
:101360009e009000c088200000804000104078005f
:10137000ed4f500006003a00f04080000000e00011
:1013800066033200a000200080108800640337004c
:101390009e009000c08820000080400090407800af
:1013a00030c2b30080cf500005003a00d621ef00d4
:1013b0005429ef005629ef000000fe0052033700c9
:1013c0009e009000c088200000804000904078007f
:1013d00040c5b30080cf500018003a001e009000b6
:1013e0000000e800100798009e009000c0882000d0
:1013f00000804000104078000000fb006041880041
:10140000604180000003b1006041880060418000bd
:101410000000e0000300350060418000e90f50004b
:10142000020034000080eb00404188001e00900064
:101430000000e80010079800330337009e0090007a
:10144000c0882000008040009040780050c4b30065
:1014500080cf50001c003a001e0090000000e80001
:10146000100798009e009000c08820000080400077
:101470009040780090c7b30080cf500003003a003e
:1014800010002000f04088000b0037009e00900004
:10149000c08820000080400090407800e0c6b30083
:1014a00080cf500002003a001e28ef0002003700f3
:1014b0000080eb00404188001e0090000000e80022
:1014c00010079800100337009e009000c08820008d
:1014d000008040009040780020c5b30080cf5000cd
:1014e0001e003a001e0090000000e800100798005f
:1014f00010002000c04a88009e009000c088200094
:10150000008040009040780090c7b30080cf50002a
:1015100003003a0010002000204188000b00370033
:101520009e009000c088200000804000904078001d
:10153000e0c6b30080cf500002003a002428ef003c
:10154000020037000080eb00404188001e00900040
:101550000000e80010079800eb0237009e009000a2
:10156000c0882000008040009040780030c5b30063
:1015700080cf50001c003a001e0090000000e800e0
:10158000100798009e009000c08820000080400056
:101590009040780090c7b30080cf500003003a001d
:1015a00010002000904088000b0037009e00900043
:1015b000c08820000080400090407800e0c6b30062
:1015c00080cf500002003a001228ef0002003700de
:1015d0000080eb00404188001e0090000000e80001
:1015e00010079800c80237009e009000c0882000b5
:1015f0000080400090407800d0c4b30080cf5000fd
:1016000035003a001e0090000000e8001007980026
:101610009e009000c08820000080400010407800ac
:101620000000fb000003b100200798002e0090008e
:101630000000e000030035002e009000e90f50008c
:10164000020034000080eb00404188002e00900032
:101650006a00b90000007800200798001e00900082
:101660000000e800100798009e009000c08820004d
:1016700000804000104078000000fb000003b10033
:10168000300798003e0090000000e00003003500a5
:101690003e009000e90f5000020034000080eb0093
:1016a00040418800ae0090003e0090000080400065
:1016b000304b8800304b80000000e00002003c000e
:1016c0000080eb00404188001e0090000000e80010
:1016d000100798008c0237009e009000c088200000
:1016e000008040009040780000c5b30080cf5000db
:1016f00037003a001e0090000000e8001007980034
:1017000010002000c04a88009e009000c088200081
:1017100000804000104078000000fb000003b10092
:10172000200798002e0090000000e0000300350024
:101730002e009000e90f5000020034000080eb0002
:10174000404188002e0090006a00b9000000780037
:10175000200798001e0090000000e8001007980085
:101760009e009000c088200000804000104078005b
:101770000000fb000003b100300798003e0090001d
:101780000000e000030035003e009000e90f50002b
:10179000020034000080eb0040418800ae00900061
:1017a0003e0090000080400090418800304b800057
:1017b0000000e00002003c000080eb004041880097
:1017c0001e0090000000e800100798004e0237004d
:1017d0009e009000c088200000804000904078006b
:1017e000f0c4b30080cf50001c003a001e009000ef
:1017f0000000e800100798009e009000c0882000bc
:10180000008040009040780040c7b30080cf500077
:1018100003003a0010002000204b88000b00370026
:101820009e009000c088200000804000904078001a
:1018300080c6b30080cf500002003a006429ef0058
:10184000020037000080eb00404188001e0090003d
:101850000000e800100798002b0237009e0090005f
:10186000c0882000008040009040780030c4b30061
:1018700080cf50001c003a001e0090000000e800dd
:10188000100798009e009000c08820000080400053
:101890009040780020c7b30080cf500003003a008a
:1018a00010002000104b88000b0037009e009000b5
:1018b000c0882000008040009040780030c6b3000f
:1018c00080cf500002003a006229ef00020037008a
:1018d0000080eb00404188001e0090000000e800fe
:1018e00010079800080237009e009000c088200072
:1018f000008040009040780080c5b30080cf500049
:1019000077003a0010002000c04a88001e009000b6
:101910000000e8001007980010002000000f780079
:101920009e009000c0882000008040009040780019
:10193000d0c2b30080cf500005003a000080eb0019
:10194000000f78001e0090000000e80010079800cb
:101950009e009000c0882000008040001040780069
:101960000000fb000003b100200798002e0090004b
:101970000000e000030035002e009000e90f500049
:10198000020034000080eb0040418800ae0090006f
:10199000803e20000088b9000000780020079800f1
:1019a0001e0090000000e800100798009e009000c4
:1019b000c088200000804000104078000000fb003c
:1019c0000003b100300798003e0090000000e000e6
:1019d000030035003e009000e90f50000200340083
:1019e0000080eb0040418800be00900040062000cf
:1019f0000088b90000007800300798001e009000b1
:101a00000000e800100798009e009000c0882000a9
:101a100000804000104078000000fb000003b1008f
:101a2000400798004e0090000000e00003003500e1
:101a30004e009000e90f5000020034000080eb00df
:101a4000404188004e0090006a00b9000000780014
:101a5000400798001e0090000000e8001007980062
:101a60009e009000c0882000008040001040780058
:101a70000000fb000003b100500798005e009000da
:101a80000000e000030035005e009000e90f500008
:101a9000020034000080eb0040418800ae0090005e
:101aa0003e009000808040004e009000808040000a
:101ab0005e009000008040000043880001438000e9
:101ac0001e0078000088b9000000780000438800fc
:101ad0001e0090000000e800100798008a013700ff
:101ae0009e009000c0882000008040009040780058
:101af00090c5b30080cf500077003a00100020005e
:101b0000c04a88001e0090000000e80010079800fe
:101b100010002000000f78009e009000c088200078
:101b20000080400090407800d0c2b30080cf5000c9
:101b300005003a000080eb00000f78001e009000c6
:101b40000000e800100798009e009000c088200068
:101b500000804000104078000000fb000003b1004e
:101b6000200798002e0090000000e00003003500e0
:101b70002e009000e90f5000020034000080eb00be
:101b800040418800ae009000803e20000088b900ef
:101b900000007800200798001e0090000000e80078
:101ba000100798009e009000c08820000080400030
:101bb000104078000000fb000003b10030079800df
:101bc0003e0090000000e000030035003e00900061
:101bd000e90f5000020034000080eb004041880013
:101be000be009000400620000088b9000000780088
:101bf000300798001e0090000000e80010079800d1
:101c00009e009000c08820000080400010407800b6
:101c10000000fb000003b100400798004e00900058
:101c20000000e000030035004e009000e90f500076
:101c3000020034000080eb00404188004e0090001c
:101c40006a00b90000007800400798001e0090006c
:101c50000000e800100798009e009000c088200057
:101c600000804000104078000000fb000003b1003d
:101c7000500798005e0090000000e000030035006f
:101c80005e009000e90f5000020034000080eb007d
:101c900040418800ae0090003e00900080804000ef
:101ca0004e009000808040005e0090000080400068
:101cb00010438800114380001e0078000088b9009e
:101cc00000007800104388001e0090000000e8002b
:101cd000100798000c0137009e009000c08820007b
:101ce0000080400090407800a0c5b30080cf500035
:101cf00077003a0010002000c04a88001e009000c3
:101d00000000e8001007980010002000000f780085
:101d10009e009000c0882000008040009040780025
:101d2000d0c2b30080cf500005003a000080eb0025
:101d3000000f78001e0090000000e80010079800d7
:101d40009e009000c0882000008040001040780075
:101d50000000fb000003b100200798002e00900057
:101d60000000e000030035002e009000e90f500055
:101d7000020034000080eb0040418800ae0090007b
:101d8000803e20000088b9000000780020079800fd
:101d90001e0090000000e800100798009e009000d0
:101da000c088200000804000104078000000fb0048
:101db0000003b100300798003e0090000000e000f2
:101dc000030035003e009000e90f5000020034008f
:101dd0000080eb0040418800be00900040062000db
:101de0000088b90000007800300798001e009000bd
:101df0000000e800100798009e009000c0882000b6
:101e000000804000104078000000fb000003b1009b
:101e1000400798004e0090000000e00003003500ed
:101e20004e009000e90f5000020034000080eb00eb
:101e3000404188004e0090006a00b9000000780020
:101e4000400798001e0090000000e800100798006e
:101e50009e009000c0882000008040001040780064
:101e60000000fb000003b100500798005e009000e6
:101e70000000e000030035005e009000e90f500014
:101e8000020034000080eb0040418800ae0090006a
:101e90003e009000808040004e0090008080400016
:101ea0005e009000008040002043880021438000b5
:101eb0001e0078000088b9000000780020438800e8
:101ec0001e0090000000e800100798008e00370008
:101ed0009e009000c0882000008040009040780064
:101ee00010c4b30080cf500077003a0010002000eb
:101ef000c04a88001e0090000000e800100798000b
:101f000010002000000f78009e009000c088200084
:101f10000080400090407800d0c2b30080cf5000d5
:101f200005003a000080eb00000f78001e009000d2
:101f30000000e800100798009e009000c088200074
:101f400000804000104078000000fb000003b1005a
:101f5000200798002e0090000000e00003003500ec
:101f60002e009000e90f5000020034000080eb00ca
:101f700040418800ae009000803e20000088b900fb
:101f800000007800200798001e0090000000e80084
:101f9000100798009e009000c0882000008040003c
:101fa000104078000000fb000003b10030079800eb
:101fb0003e0090000000e000030035003e0090006d
:101fc000e90f5000020034000080eb00404188001f
:101fd000be009000400620000088b9000000780094
:101fe000300798001e0090000000e80010079800dd
:101ff0009e009000c08820000080400010407800c3
:102000000000fb000003b100400798004e00900064
:102010000000e000030035004e009000e90f500082
:10202000020034000080eb00404188004e00900028
:102030006a00b90000007800400798001e00900078
:102040000000e800100798009e009000c088200063
:1020500000804000104078000000fb000003b10049
:10206000500798005e0090000000e000030035007b
:102070005e009000e90f5000020034000080eb0089
:1020800040418800ae0090003e00900080804000fb
:102090004e009000808040005e0090000080400074
:1020a00030438800314380001e0078000088b9006a
:1020b00000007800304388001e0090000000e80017
:1020c00010079800100037009e009000c088200084
:1020d000008040009040780000c2b30080cf5000e4
:1020e00004003a001e0090000000e800100798006d
:1020f0000500370030052000801088000080eb00cc
:102100004041880006003700a04180009e009000fa
:10211000808f500092fc3500010037000000000065
:10212000bb010700e04a8000f04a88005429ef0014
:102130005629ef0040418000e10f40000e003a00b8
:10214000d621ef005829ef002828ef005429ef008e
:102150000000eb0010079800500420008010880059
:102160006028ef006228ef006428ef006628ef0087
:102170003228ef003028ef008520a9000080fa0007
:102180004f03be004f02be004f01be004f00be0015
:102190003600f900004006003600f800809fbe00bf
:1021a000829fbe00849fbe00869fbe000000fa0092
:1021b000e701070020408000e10f50000a003a00cc
:1021c000004b8000e10f500007003a00e040800023
:1021d000100888000a28ef00100020004040880006
:1021e0002228ef003028ef000ec8bf00e24f500059
:1021f000030032000ec8bf00e34f500011003a0048
:1022000020408000e10f50000e003a00004b80009b
:10221000e10f50000b003a00100020003040880011
:102220000ec8bf00e24f500003003a00a00020009b
:10223000004388001b00370060ff2f000043880028
:10224000180037000ec8bf00e54f500003003200f1
:102250000ec8bf00e64f500011003a002040800039
:10226000e10f50000e003a00004b8000e10f5000db
:102270000b003a0010002000304088000ec8bf005c
:10228000e54f500003003a00a000200010438800f2
:102290000400370060ff2f00104388000100370062
:1022a0000628ef00004180000000e00003003c0031
:1022b00030408000e10f500018013a008042800059
:1022c00091428000e00f5000e08f58001d00320066
:1022d000424380005343800080428000914280004e
:1022e000800f5100818f590009003500f0418000b6
:1022f0000040a000f04188001000200001002000f4
:1023000040438800514388004828ef000d00370003
:10231000404380005143800061004000e08048005d
:102320004043880051438800404280000000e000a4
:1023300004003c00100020004042880040062000bd
:1023400000428800a0428000b1428000e00f5000af
:10235000e08f58001d00320062438000734380000c
:10236000a0428000b1428000800f5100818f59004f
:1023700009003500f04180000050a000f0418800c5
:102380001000200001002000604388007143880095
:102390004a28ef000d003700604380007143800041
:1023a00061004000e080480060438800714388007d
:1023b000504280000000e00004003c0010002000bb
:1023c000504288004006200010428800c042800031
:1023d000d1428000e00f5000e08f58001d00320015
:1023e0008243800093438000c0428000d14280003d
:1023f000800f5100818f590009003500f0418000a5
:102400000060a000f04188001000200001002000c2
:1024100080438800914388004c28ef000d0037006e
:10242000804380009143800061004000e0804800cc
:102430008043880091438800604280000000e000f3
:1024400004003c001000200060428800400620008c
:1024500020428800e0428000f1428000e00f5000fe
:10246000e08f58001d003200a2438000b34380007b
:10247000e0428000f1428000800f5100818f5900be
:1024800009003500f04180000070a000f041880094
:102490001000200001002000a0438800b143880004
:1024a0004e28ef000d003700a0438000b1438000ac
:1024b00061004000e0804800a0438800b1438800ec
:1024c000704280000000e00004003c00100020008a
:1024d00070428800400620003042880000428000a0
:1024e0000000e00004003400004280000000e90029
:1024f0000042880009003700004280000000e00030
:1025000006003a000080eb0000428800f1418000a4
:10251000f00e200000806000f04188001042800032
:102520000000e00004003400104280000000e900d8
:102530001042880009003700104280000000e000cf
:1025400006003a000080eb0010428800f141800054
:10255000f00d200000806000f041880020428000e3
:102560000000e00004003400204280000000e90088
:102570002042880009003700204280000000e0006f
:1025800006003a000080eb0020428800f141800004
:10259000f00b200000806000f04188003042800095
:1025a0000000e00004003400304280000000e90038
:1025b0003042880009003700304280000000e0000f
:1025c00006003a000080eb0030428800f1418000b4
:1025d000f007200000806000f0418800c0438000c8
:1025e000d1438000e00f5000e08f580005003d000f
:1025f0002028ef003c28ef003e28ef008e00070067
:1026000048003700504080000000e0003a003200ef
:10261000c0408000d1408000e00f5000e08f5800a3
:1026200007003400c0408000d140800061005000ad
:10263000e0805800c0408800d1408800300037005a
:10264000c2438000d3438000f0e124000100200059
:10265000800f5100818f59000c003c00b040800079
:102660006a004000b040880000052000a0408800bb
:10267000b1408000f07c2000808f500017003400b3
:10268000007d2000b040880014003700b140800079
:10269000a040800000805000b0408800a040800032
:1026a000e20f500007003400b140800030062000e7
:1026b000808f500003003c00a04080000000e90033
:1026c000a0408800b1408000e0408000808f500032
:1026d00002003c00e0408000b0408800b040800034
:1026e00010088800a00f200001002000c0408800d2
:1026f000d140880002003700e040800010088800c8
:10270000c0438000d143800061005000e080580049
:10271000c0438800d143880002003700f0ff20004a
:1027200010088800f1418000e04180000100700045
:10273000501688008460a9000080fa004f03be0094
:102740004f02be004f01be004f00be003600f90030
:1027500000400600801f78000000fa000040800062
:102760000000e00004003a00100020000040880053
:10277000d1e2a80022003700104080000000e000f5
:1027800001003200d1e2a9000028ef00f04a8000e9
:102790000000e00007003c00204080000000e00056
:1027a00004003a001000200010408800d621ef00fd
:1027b00013003700204080000000e00007003a00ce
:1027c000904180000000e00004003400f04a8000e6
:1027d0000000e900f04a880009003700204080002e
:1027e000e10f500003003200904180000000e00043
:1027f00003003c000228ef00e04a8000f04a880015
:1028000084c0a9000080fa004f0078000040060054
:102810000000fa0090408000504088009041800005
:102820008041880020418000104188000828ef0086
:102830000080fa00000006000000fa005028ef00b7
:102840005228ef005428ef005628ef005828ef00d8
:102850005a28ef005c28ef005e28ef002028ef00e8
:102860003c28ef003e28ef006028ef006228ef00d0
:102870006428ef006628ef006828ef006a28ef0060
:102880006c28ef006e28ef007028ef007228ef0030
:102890007428ef007628ef007828ef007a28ef0000
:1028a0006000b800e0438800f14388006000b80091
:1028b00000448800114488006000b800204488006b
:1028c000314488006000b8004044880051448800ca
:1028d0000080fa00000006001200fa00500798007d
:1028e0006107980072079800030f980002402200c9
:1028f000439724007e0090008e089000d9f70700cf
:10290000008fbe005e019000ee0190001e00be0030
:1029100000f707000200200003182400fdf607005e
:102920000200200003f823009cf60700200798000f
:10293000310798002e009000be00900058f7070065
:10294000400798004e0090000080fa00000006004a
:102950000000fa000e68ef00e222ef00e202a80099
:10296000604080000000e00003003a0010002000fa
:1029700060408800490037000428ef00a01680005e
:10298000610060000000e00005003200004b8000a4
:102990000000e0000200320010002000204088000b
:1029a000a0168000640060000000e0000200320019
:1029b00020c0b3000ee8b700a016800068006000d9
:1029c0000000e0000200320030c0b3000ee8b700a3
:1029d000e222ef00e222a80060408000e10f5000f8
:1029e00003003a0020002000604088002b003700e0
:1029f000a0168000610060000000e00002003200cc
:102a000040c0b3000ee8b700a0168000640060006c
:102a10000000e0000200320050c0b3000ee8b70032
:102a2000a0168000680060000000e0000200320094
:102a300060c0b3000ee8b700e222ef00e2c2a800d7
:102a400060408000e20f500002003a000c28ef00c6
:102a500012003700a0168000610060000000e00056
:102a60000200320070c0b3000ee8b700a01680006c
:102a7000640060000000e0000200320080c0b3008b
:102a80000ee8b700a0168000680060000000e000bb
:102a90000200320090c0b3000ee8b7000080fa00d8
:042aa000000006002c
:020000040000fa
:102aa4005c090000100000000200000005000500a1
:102ab4000001000001000100006300000100c800e3
:102ac40000000000000800005c010000000000009d
:042ad40000000000fe
:020000040000fa
:0200000401f009
:04000000e3bf00005a
:020000040000fa
:0200000401f009
:04000400ff7f00007a
:020000040000fa
:0200000401f009
:040008007fff000076
:020000040000fa
:0200000401f009
:04001400ffff0000ea
:00000001FF
